:101329004B005600000000000000000000004900CA
:101339006500000000000000000041005500410068
:0E1349006100C105C103C100C104C101C102A0
:060FBC009000181209EB81
:100FC20090FE027480F0438E01438E04759850E4C3
:100FD200F587759A5075AC107584107F04FEFDFC80
:100FE20090001CE0F8A3E0F9A3E0FAA3E0FB1209E9
:100FF20053EC120838C004C005C006C0077F007E4B
:10100200247D747C49900018E0F8A3E0F9A3E0FA8B
:10101200A3E0FB120692D003D002D001D000120747
:101022009BA804A905AA06AB07E4FFFE7D807C47C6
:1010320012059D120876AD07AC06ECAE05F5D6AFEB
:06104200068FD7438E105B
:011048002285
:0E137D0000007F0D7E2D7DD6DDFEDEFCDFFA4A
:01138B00223F
:06008200F599C298D2AC12
:0A00880000007F9C7ED5DEFEDFFC49
:01009200224B
:100F13007B0190003304F0A37400F07421A3F0A3C9
:0A0F2300E4F0A37405F07A0079658C
:100F2D00900038EBF0A3EAF0A3E9F0900033E0F97C
:100F3D00A3E0FAA3E090003BC9F0A3EAF0A3E9F027
:100F4D00E490003FF0A3F0900038E0FBA3E475F0CF
:100F5D000112093DA9F0FA1208F790003EF0900039
:100F6D003BE0FBA3E475F00112093DA9F0FA12086C
:100F7D00F7FF900040E004F0700690003FE004F0B1
:100F8D00900036E0FCA3E0FD90003FE0B5040DA31A
:100F9D00E0B5050890003EE0C39F800D90003EE057
:0E0FAD00FE6F60A3EFFDEEC39DFFE49400FE17
:010FBB002213
:10136C008F99D2053005093099FAC299C20580F4DB
:01137C00224E
:100003008F9BD20030000CE59A30E1F8539AFDC281
:040013000080F12256
:1012C200E0FF1212E2A3E0FF1212E2A3E0FF121209
:1012D200E2A3E0FF1212E2A3E0FF1212E2A3E0FF98
:1012E2008FADD20130010CE5AC30E1F853ACFDC258
:0412F2000180F12264
:101358008F85D20230020CE58430E1F85384FDC257
:041368000280F122EC
:1012170090001874F4F0A37405F0E4A3F0A3F0A30E
:10122700F0A3F0A374CCF0A3744FF0E4FDFC7418A2
:101237002DF58274003CF583E0FF12136C0DBD00A1
:08124700010CED64084C70E697
:01124F00227C
:1012500090001874F4F0A37406F0E4A3F0A3F0A3D4
:10126000F0A3F0A37488F0A3744FF0E4FDFC7418AD
:101270002DF58274003CF583E0FF12136C0DBD0068
:08128000010CED64084C70E65E
:011288002243
:060D60007B017A00794DD1
:0E0D6600900018EFF0A3EBF0A3EAF0A3E9F081
:100D7400E490002AF0A3F0A37405F0E4A3F0FE7F4E
:100D84000EFD7B017A00791C120A2890001C743E27
:100D9400F0A374A3F0900018E090001EF0A3740870
:100DA400F090002BE0FFC3940474809480501A7474
:100DB4001C2FF582E43400F583E0FF900020E02F3F
:100DC400F090002BE004F080D8E490002AF090002A
:100DD4002AE0C3940874809480502D900019E0FB9D
:100DE400A3E0FAA3E0F990002AE0FFF582758300FE
:100DF400120910FE74212FF582E43400F583EEF01D
:100E040090002AE004F080C690002CE0FFC3940D0B
:100E140074809480501A741C2FF582E43400F58396
:100E2400E0FF900029E02FF090002CE004F080D83F
:100E340090002DE0C3940E748094805015E0FF045C
:100E4400F0741C2FF582E43400F583E0FF120003F4
:020E540080DE3E
:010E56002279
:100C0700D2B5E4F5AF7B0190001D04F0A37400F0AA
:0C0C1700A37449F07A007962E4FD7F03C9
:100C2300900018EFF0A3EDF0A3EBF0A3EAF0A3E933
:010C3300F0D0
:100C3400E490002EF0A3F0A3F0A37405F0E4A3F075
:100C4400FE7F0EFD7B017A007920120A2890002095
:100C5400743EF0A374A6F0900018E0900022F0A374
:100C64007408F090002FE0FFC394047480948050C3
:100C74001A74202FF582E43400F583E0FF900024F9
:100C8400E02FF090002FE004F080D8900019E0905D
:100C94000025F0E490002EF090002EE0C39403743D
:100CA400809480502D90001AE0FBA3E0FAA3E0F9B1
:100CB40090002EE0FFF582758300120910FE742661
:100CC4002FF582E43400F583EEF090002EE004F07A
:100CD40080C6E4900030F0900030E0C39404748047
:100CE4009480502D90001DE0FBA3E0FAA3E0F9905E
:100CF4000030E0FFF582758300120910FE74292F7D
:100D0400F582E43400F583EEF0900030E004F080E6
:100D1400C6900031E0FFC3940D74809480501A741F
:100D2400202FF582E43400F583E0FF90002DE02FBE
:100D3400F0900031E004F080D8900032E0C3940ECB
:100D4400748094805015E0FF04F074202FF582E441
:0B0D54003400F583E0FF12000380DE96
:010D5F002271
:0F1144007FE87E03FDFCE0F8A3A3A3E0120953AC
:101153009000181209EB900018A3A3A3E09000627B
:10116300F0900018E0FCA3E0FDA3E0FEA3E0FF780D
:10117300081209D7900063EFF0900018E0FCA3E099
:10118300FDA3E0FEA3E0FF78101209D7900064EFFF
:04119300F07F622265
:100026009000181209EB900018A3A3A3E0900049D2
:10003600F0900018E0FCA3E0FDA3E0FEA3E0FF784B
:10004600081209D790004AEFF0900018E0FCA3E0F0
:10005600FDA3E0FEA3E0FF78101209D790004BEF56
:10006600F0900018E0FCA3E0FDA3E0FEA3E0FF781B
:0C007600181209D790004CEFF07F4922CF
:100E57009000181209EB900018A3A3A3E090004D8F
:100E6700F0900018E0FCA3E0FDA3E0FEA3E0FF780C
:100E7700081209D790004EEFF0900018E0FCA3E0AD
:100E8700FDA3E0FEA3E0FF78101209D790004FEF13
:100E9700F0900018E0FCA3E0FDA3E0FEA3E0FF78DC
:100EA700181209D7900050EFF0900018E0FCA3E06B
:100EB700FDA3E0FEA3E0FF78201209D7900051EFD1
:100EC700F0900018E0FCA3E0FDA3E0FEA3E0FF78AC
:100ED700281209D7900052EFF0900018E0FCA3E029
:100EE700FDA3E0FEA3E0FF78301209D7900053EF8F
:100EF700F0900018E0FCA3E0FDA3E0FEA3E0FF787C
:0C0F0700381209D7900054EFF07F4D2203
:1011D800900044EBF0A3EAF0A3E9F0A3ECF0A3ED50
:0111E800F016
:1011E900E4FDFCD3900048E09D900047E09C401D41
:1011F900900044E0FBA3E0FAA3E0F98D828C83120E
:0D1209000910FF1213580DBD00010C80D616
:0112160022B5
:08119700900030EFF0A3EDF031
:10119F007E007F057D007B017A007932120A28904C
:1011AF0000327456F0E4A3F0900030E0900034F079
:1011BF00A37401F0900031E0900036F07B017A00CB
:0911CF0079327D057C000211D883
:0B10D500900030EFF0A3EDF0A3EBF073
:1010E0007E007F107D007B017A007934120A2890FF
:1010F00000347456F0E4A3F0A37432F0A3740CF03F
:10110000E4A3F0A3740CF0E4A3F0A3F0A3F0A3F025
:10111000900030E090003EF0900031E090003FF011
:10112000900032E0900040F0900033E0900041F0F9
:10113000E4A3F0A374FFF07B017A0079347D107C86
:04114000000211D8C0
:100A540090001C1209F7000000009000217476F049
:100A6400E4A3F0A37436F0E4A3F0A3F0A37476F047
:100A7400E4A3F0A37434F0E4A3F0A37404F0A37427
:100A840076F0E4A3F0A37426F0E4A3F0A3F0FE7FD1
:100A940009FD7B017A007965120A28E4900061F06F
:100AA400F5AFFD7F3612119743AF10900061E064FB
:100AB4000570F8120F13EF4E6003020C06F5AFFE3B
:100AC4007F09FD7B017A007965120A28E4900061B0
:100AD400F0FD7F3412119743AF10900061E0640978
:100AE40070F87B0190003304F0A37400F0742612B4
:100AF4000F20EF4E6003020C06F5AF90006AE09001
:100B04000020F090006BE0F9A3E0FBA3E0FAE97E9B
:100B1400007810C333CE33CED8F9FDAC0690002054
:100B2400E07E007818C333CE33CED8F9FFEE4CFC08
:100B3400EF4DFDEB4CFEEDFFEAFDEF4DFFEE33957F
:100B4400E0FDFC9000181209EB900018E0FCA3E013
:100B5400FDA3E0FEA3E0240AFFE43EFEE43DFDE441
:100B64003CFC9000181209EB900020E0FFAE01ADB0
:100B740006900033EAF01210D5900018E0FCA3E0D0
:100B8400FDA3E0FEA3E0FFA3E0F8A3E0F9A3E0FAED
:100B9400A3E0FBC31209B06030E58430E0DB53848A
:100BA400FEAB85AF031212E290001CE0FCA3E0FD53
:100BB400A3E0FEA3E02401FFE43EFEE43DFDE43CAB
:100BC400FC90001C1209EB80B07E007F097D007B45
:100BD400017A007965120A28E4900061F07D027FB1
:100BE4003612119743AF10900061E0640570F8125B
:100BF4000F13EF4E700CAFBAEF700475BA0422E411
:020C0400F5BA3F
:010C060022CB
:100096009000081209F700000000E47F1EFEFDFC38
:1000A600900008E0F8A3E0F9A3E0FAA3E0FBC3128E
:1000B60009C6502412137D900008E0FCA3E0FDA3BE
:1000C600E0FEA3E02401FFE43EFEE43DFDE43CFC4B
:1000D6009000081209EB80C290001174F4F0A3742A
:1000E60007F0E4A3F0A3F090001C1209F70001C288
:1000F600007F007E007DC07C41120FBCD2AFE4F5CC
:10010600AFD2B5FFFEFDFC120E577F01120D601235
:10011600137D7F04120D6012137D7B017A00794DE9
:100126007F03120D6612137D9000081209F7000076
:100136000000E47F14FEFDFC900008E0F8A3E0F95F
:10014600A3E0FAA3E0FBC31209C6502412137D9064
:100156000008E0FCA3E0FDA3E0FEA3E02401FFE429
:100166003EFEE43DFDE43CFC9000081209EB80C233
:1001760030A7FD75A280E4900055F07FA512136CA0
:100186007F4512136C7FEA12136C120082900055A1
:10019600E0640B70F8C2AC7FA512136C7F75121366
:1001A6006C7F1A12136C12008890005A1212C275D4
:1001B600A2407F507E467D007C0012002690000003
:1001C6001209F700000000E47F12FEFDFC9000001B
:1001D600E0F8A3E0F9A3E0FAA3E0FBD31209C640D6
:1001E6000302034EE490000012114490001D7401B6
:1001F600F0A37400F0A37449F07B017A007962E4FD
:10020600FD7F01120C2312137D9000041209F700E2
:10021600000000E47F1BFEFDFC900004E0F8A3E074
:10022600F9A3E0FAA3E0FBD31209C640030202BE1B
:10023600E4900010F0900004121144120C071213FF
:100246007DE4900055F0121217E4120082900055DA
:10025600E0640870F8C2AC1212509000337401F0DA
:10026600A37400F0A37411F0A3E4F0A37404F07B6C
:10027600017A007956120F2DEF4E700F900056122C
:1002860012C21212D9900010E004F0E4900055F06A
:10029600900010E060AB900004E0FCA3E0FDA3E05A
:1002A600FEA3E02401FFE43EFEE43DFDE43CFC90B9
:1002B60000041209EB0202197F007E007D007C001B
:1002C60012115390001D7401F0A37400F0A3744939
:1002D600F07B017A0079627D017F03120C23900086
:1002E600081209F700000000E47F0FFEFDFC9000F5
:1002F60008E0F8A3E0F9A3E0FAA3E0FBD31209C6ED
:10030600502412137D900008E0FCA3E0FDA3E0FE5C
:10031600A3E02401FFE43EFEE43DFDE43CFC900046
:10032600081209EB80C2900000E0FCA3E0FDA3E008
:10033600FEA3E02401FFE43EFEE43DFDE43CFC9028
:1003460000001209EB0201CD7F007E007D007C00DB
:1003560012115390001D7401F0A37400F0A37449A8
:10036600F07B017A0079627D017F01120C239000F7
:10037600001209F700000000E47F14FEFDFC900067
:1003860000E0F8A3E0F9A3E0FAA3E0FBD31209C664
:10039600502412137D900000E0FCA3E0FDA3E0FED4
:1003A600A3E02401FFE43EFEE43DFDE43CFC9000B6
:1003B600001209EB80C27FA07E8C7D007C001200BB
:1003C600269000001209F700000000E47F05FEFDFC
:1003D600FC900000E0F8A3E0F9A3E0FAA3E0FBD369
:1003E6001209C64003020598E47F707E17FDFC9053
:1003F600000012114A90001D7401F0A37400F0A3CE
:100406007449F07B017A007962E4FD7F01120C23C6
:100416009000081209F700000000E47F05FEFDFCCD
:10042600900008E0F8A3E0F9A3E0FAA3E0FBD312FA
:1004360009C6502412137D900008E0FCA3E0FDA33A
:10044600E0FEA3E02401FFE43EFEE43DFDE43CFCC7
:100456009000081209EB80C29000041209F7000010
:100466000000E47F05FEFDFC900004E0F8A3E0F93F
:10047600A3E0FAA3E0FBD31209C64003020508E491
:100486007F707E17FDFC90000412114A120C079033
:1004960000081209F700000000E47F05FEFDFC904D
:1004A6000008E0F8A3E0F9A3E0FAA3E0FBD3120901
:1004B600C6502412137D900008E0FCA3E0FDA3E0E3
:1004C600FEA3E02401FFE43EFEE43DFDE43CFC9097
:1004D60000081209EB80C2120A5412137D120A5444
:1004E600900004E0FCA3E0FDA3E0FEA3E02401FFEE
:1004F600E43EFEE43DFDE43CFC9000041209EB0200
:1005060004687F007E007D007C0012115390001D60
:100516007401F0A37400F0A37449F07B017A0079AA
:10052600627D017F03120C239000081209F7000078
:100536000000E47F0FFEFDFC900008E0F8A3E0F960
:10054600A3E0FAA3E0FBD31209C6502412137D9050
:100556000008E0FCA3E0FDA3E0FEA3E02401FFE425
:100566003EFEE43DFDE43CFC9000081209EB80C22F
:10057600900000E0FCA3E0FDA3E0FEA3E02401FF61
:10058600E43EFEE43DFDE43CFC9000001209EB0273
:0405960003D180FE0F
:030023000212F6D0
:1012F600C0E0C083C082C0D0309904C299C2053014
:101306009818900055E02456F582E43400F583E5FC
:1013160099F0900055E004F0C298D0D0D082D083E6
:03132600D0E032E2
:03009300021289CD
:10128900C0E0C083C082C0D0E58430E1055384FD4D
:10129900C202E58430E0195384FE900061E02465C0
:1012A900F582E43400F583E585F0900061E004F00F
:0912B900D0D0D082D083D0E03205
:10059A000208E2E86480F8E933E83360110460F0A5
:1005AA00ED33EC337009E8FCE9FDEAFEEBFF2204C7
:1005BA0060DED3EB9FEA9EE99DE8C2E78CF0C2F7C2
:1005CA0095F0400CE8CCF8E9CDF9EACEFAEBCFFB8E
:1005DA001208AD85D0F05804700320D5B3E8047032
:1005EA00075002B2D50208EC92D5EC0460F7E4CCCD
:1005FA00C0E0C398F8603B94186008400DD0E0FB57
:10060A000208C4E4FBFAC9FC8028E830E406E4C91D
:10061A00FBE4CAFCE830E305E4C9CACBFCE85407AA
:10062A006010F8C3E913F9EA13FAEB13FBEC13FCB5
:10063A00D8F130F52FC3E49CFCEF9BFFEE9AFEED58
:10064A0099FDD0E0FBEF4E4D4C701222DB030208FD
:10065A00E9EC2CFCEF33FFEE33FEED33FDED30E732
:10066A00EB0208C4EF2BFFEE3AFEED39FDD0E0FBBA
:10067A0050130BBB00030208ECED13FDEE13FEEF63
:08068A0013FFEC13FC0208C48D
:10069200EC4D6011E8497017ED33EC3304600DE462
:1006A200FCFFFEFD22E933E8330470F80208E2128F
:1006B20008AD58046009E4CC248150062850090290
:1006C20008EC2840030208E9C0E0EB4A7044B98014
:1006D20006D0E0FB0208D8EF4E701CBD8008EBFF8D
:1006E200EAFEE9FD80EBE98DF0A4FEE5F002077B6E
:1006F200E9CDF9EAFEEBFFEF89F0A4FCE5F0CE8943
:10070200F0A42EFFE435F0CD89F0A42DFEE435F0FF
:100712008067EF4E7005BD80D780C3EF8BF0A4AC2D
:10072200F0EE8BF0A42CFCE435F0F8EF8AF0A42C68
:10073200E5F038FCE433CB8DF0A42CFCE5F03BF87B
:10074200EE8AF0A42CFCE5F038F8E433CF89F0A46B
:100752002CFCE5F038CF3400CE89F0A42FFFE5F071
:100762003EFEE433C98DF0A42EFEE5F039CD8AF0C9
:10077200A42FFFE5F03EFEE43DFD33D0E0FB500741
:100782000BBB000F0208ECEC2CFCEF33FFEE33FE48
:06079200ED33FD0208C476
:100798000208ECEC5D046005E8590470030208E205
:1007A8001208AD580460F6EC4860F2EC7004FDFEE7
:1007B800FF22C860DB2481C85009C3986002500634
:1007C8000208E99850CAF582E9294B4A7005AB82BC
:1007D8000208D875F0007C1A7880C3EF9BEE9AED7A
:1007E80099400DC3EF9BFFEE9AFEED99FDE842F0AC
:1007F800DC23ACF0D0E0FFD0E0FED0E0FDAB8220FF
:10080800E7101BEB60BAEC2CFCEF33FFEE33FEED88
:1008180033FD0208C4E803F830E705C0F075F000BE
:10082800EF2FFFEE33FEED33FD40B830E7C280AA6C
:1008380075F020800E75F010800575F0087D007E3B
:10084800007F003392D530D5031209A2EC33401053
:10085800EF33FFEE33FEED33FDEC33FCD5F0ED2244
:0E086800E5F0247EA2D513CC92E7CDCEFF2280
:10087600EDD2E7CD33EC3392D524814006E4FFFE7A
:10088600FDFC22FCE4CFCECDCC24E0501174FF80D9
:10089600EDC3CC13CCCD13CDCE13CECF13CF047076
:0708A600F030D5DE0209A2CB
:1008AD00E9D2E7C933E833F892D5EDD2E7CD33EC91
:0708BD0033FC5002B2D5220A
:1008C400EC30E7100FBF000C0EBE00080DBD000495
:1008D4000BEB6014A2D5EB13FCED92E7FD2274FF41
:1008E400FCFDFEFF22E480F8A2D574FF13FC7D809A
:0308F400E480EFAE
:03000000021049A2
:0C104900787FE4F6D8FD7581200210903D
:1008F700BB010689828A83E0225002E722BBFE02FF
:09090700E32289828A83E4932231
:10091000BB010CE58229F582E5833AF583E022509C
:1009200006E92582F8E622BBFE06E92582F8E222E6
:0D093000E58229F582E5833AF583E4932200
:10093D00A3F8E0C5F025F0F0E5821582700215836D
:06094D00E0C838F0E822CA
:10095300E88FF0A4CC8BF0A42CFCE98EF0A42CFC43
:100963008AF0EDA42CFCEA8EF0A4CDA8F08BF0A4C1
:100973002DCC3825F0FDE98FF0A42CCD35F0FCEB20
:100983008EF0A4FEA9F0EB8FF0A4CFC5F02ECD39E5
:0F099300FEE43CFCEAA42DCE35F0FDE43CFC2252
:0E09A200C3E49FFFE49EFEE49DFDE49CFC2266
:1009B000EB9FF5F0EA9E42F0E99D42F0EC6480C8BE
:0609C00064809845F0225E
:1009C600EB9FF5F0EA9E42F0E99D42F0E89C45F087
:0109D60022FE
:1009D700E86010ECA2E713FCED13FDEE13FEEF1336
:0409E700FFD8F02223
:0C09EB00ECF0A3EDF0A3EEF0A3EFF0227F
:1009F700A8828583F0D083D082120A0E120A0E12C3
:100A07000A0E120A0EE473E493A3C583C5F0C583E7
:100A1700C8C582C8F0A3C583C5F0C583C8C582C849
:010A270022AC
:100A2800EF4E6012EF60010EEDBB010B89828A83E5
:100A3800F0A3DFFCDEFA2289F05007F709DFFCA9F2
:0C0A4800F022BBFEFCF309DFFCA9F02249
:10105500020096E493A3F8E493A34003F68001F21B
:1010650008DFF48029E493A3F85407240CC8C3339C
:10107500C4540F4420C8834004F456800146F6DF6B
:10108500E4800B0102040810204080901329E47EBF
:10109500019360BCA3FF543F30E509541FFEE49360
:1010A500A360010ECF54C025E060A840B8E493A327
:1010B500FAE493A3F8E493A3C8C582C8CAC583CA52
:1010C500F0A3C8C582C8CAC583CADFE9DEE780BE0A
:011357000095
:00000001FF
